{
  "contractName": "Voting",
  "abi": [
    {
      "anonymous": false,
      "inputs": [
        {
          "indexed": false,
          "internalType": "uint256",
          "name": "id",
          "type": "uint256"
        },
        {
          "indexed": false,
          "internalType": "string",
          "name": "name",
          "type": "string"
        },
        {
          "indexed": false,
          "internalType": "string",
          "name": "party",
          "type": "string"
        },
        {
          "indexed": false,
          "internalType": "string",
          "name": "candidatePhoto",
          "type": "string"
        },
        {
          "indexed": false,
          "internalType": "string",
          "name": "partySymbol",
          "type": "string"
        }
      ],
      "name": "CandidateAdded",
      "type": "event"
    },
    {
      "anonymous": false,
      "inputs": [
        {
          "indexed": false,
          "internalType": "string",
          "name": "electionName",
          "type": "string"
        },
        {
          "indexed": false,
          "internalType": "uint256[]",
          "name": "candidateIds",
          "type": "uint256[]"
        }
      ],
      "name": "ElectionCreated",
      "type": "event"
    },
    {
      "anonymous": false,
      "inputs": [
        {
          "indexed": false,
          "internalType": "uint256",
          "name": "candidateId",
          "type": "uint256"
        },
        {
          "indexed": false,
          "internalType": "string",
          "name": "voterId",
          "type": "string"
        },
        {
          "indexed": false,
          "internalType": "uint256",
          "name": "newVoteCount",
          "type": "uint256"
        }
      ],
      "name": "VoteCasted",
      "type": "event"
    },
    {
      "constant": true,
      "inputs": [
        {
          "internalType": "uint256",
          "name": "",
          "type": "uint256"
        }
      ],
      "name": "candidates",
      "outputs": [
        {
          "internalType": "uint256",
          "name": "id",
          "type": "uint256"
        },
        {
          "internalType": "string",
          "name": "name",
          "type": "string"
        },
        {
          "internalType": "string",
          "name": "party",
          "type": "string"
        },
        {
          "internalType": "string",
          "name": "candidatePhoto",
          "type": "string"
        },
        {
          "internalType": "string",
          "name": "partySymbol",
          "type": "string"
        },
        {
          "internalType": "uint256",
          "name": "voteCount",
          "type": "uint256"
        }
      ],
      "payable": false,
      "stateMutability": "view",
      "type": "function"
    },
    {
      "constant": true,
      "inputs": [],
      "name": "candidatesCount",
      "outputs": [
        {
          "internalType": "uint256",
          "name": "",
          "type": "uint256"
        }
      ],
      "payable": false,
      "stateMutability": "view",
      "type": "function"
    },
    {
      "constant": true,
      "inputs": [
        {
          "internalType": "string",
          "name": "",
          "type": "string"
        }
      ],
      "name": "elections",
      "outputs": [
        {
          "internalType": "string",
          "name": "electionName",
          "type": "string"
        }
      ],
      "payable": false,
      "stateMutability": "view",
      "type": "function"
    },
    {
      "constant": true,
      "inputs": [
        {
          "internalType": "string",
          "name": "",
          "type": "string"
        }
      ],
      "name": "hasVoted",
      "outputs": [
        {
          "internalType": "bool",
          "name": "",
          "type": "bool"
        }
      ],
      "payable": false,
      "stateMutability": "view",
      "type": "function"
    },
    {
      "constant": false,
      "inputs": [
        {
          "internalType": "string",
          "name": "_name",
          "type": "string"
        },
        {
          "internalType": "string",
          "name": "_party",
          "type": "string"
        },
        {
          "internalType": "string",
          "name": "_candidatePhoto",
          "type": "string"
        },
        {
          "internalType": "string",
          "name": "_partySymbol",
          "type": "string"
        }
      ],
      "name": "addCandidate",
      "outputs": [],
      "payable": false,
      "stateMutability": "nonpayable",
      "type": "function"
    },
    {
      "constant": false,
      "inputs": [
        {
          "internalType": "string",
          "name": "_electionName",
          "type": "string"
        },
        {
          "internalType": "uint256[]",
          "name": "_candidateIds",
          "type": "uint256[]"
        }
      ],
      "name": "createElection",
      "outputs": [],
      "payable": false,
      "stateMutability": "nonpayable",
      "type": "function"
    },
    {
      "constant": false,
      "inputs": [
        {
          "internalType": "uint256",
          "name": "_candidateId",
          "type": "uint256"
        },
        {
          "internalType": "string",
          "name": "_voterId",
          "type": "string"
        }
      ],
      "name": "vote",
      "outputs": [],
      "payable": false,
      "stateMutability": "nonpayable",
      "type": "function"
    },
    {
      "constant": true,
      "inputs": [],
      "name": "getCandidatesCount",
      "outputs": [
        {
          "internalType": "uint256",
          "name": "",
          "type": "uint256"
        }
      ],
      "payable": false,
      "stateMutability": "view",
      "type": "function"
    },
    {
      "constant": true,
      "inputs": [
        {
          "internalType": "uint256",
          "name": "_id",
          "type": "uint256"
        }
      ],
      "name": "getCandidate",
      "outputs": [
        {
          "internalType": "string",
          "name": "",
          "type": "string"
        },
        {
          "internalType": "string",
          "name": "",
          "type": "string"
        },
        {
          "internalType": "string",
          "name": "",
          "type": "string"
        },
        {
          "internalType": "string",
          "name": "",
          "type": "string"
        },
        {
          "internalType": "uint256",
          "name": "",
          "type": "uint256"
        }
      ],
      "payable": false,
      "stateMutability": "view",
      "type": "function"
    },
    {
      "constant": true,
      "inputs": [],
      "name": "getElectionResults",
      "outputs": [
        {
          "components": [
            {
              "internalType": "uint256",
              "name": "id",
              "type": "uint256"
            },
            {
              "internalType": "string",
              "name": "name",
              "type": "string"
            },
            {
              "internalType": "string",
              "name": "party",
              "type": "string"
            },
            {
              "internalType": "string",
              "name": "candidatePhoto",
              "type": "string"
            },
            {
              "internalType": "string",
              "name": "partySymbol",
              "type": "string"
            },
            {
              "internalType": "uint256",
              "name": "voteCount",
              "type": "uint256"
            }
          ],
          "internalType": "struct Voting.Candidate[]",
          "name": "",
          "type": "tuple[]"
        }
      ],
      "payable": false,
      "stateMutability": "view",
      "type": "function"
    }
  ],
  "bytecode": "0x6080604052600060035534801561001557600080fd5b50611d55806100256000396000f3fe608060405234801561001057600080fd5b506004361061009e5760003560e01c806342b03cc91161006657806342b03cc9146101765780634a3ccc9614610192578063bb9aa28f146101c2578063eccf1f10146101e0578063faab48a6146101fe5761009e565b806324108475146100a35780632d35a8a2146100bf5780633477ee2e146100dd57806335b8e8201461011257806339bfeae314610146575b600080fd5b6100bd60048036036100b891908101906114b5565b61021a565b005b6100c7610387565b6040516100d491906119eb565b60405180910390f35b6100f760048036036100f2919081019061148c565b61038d565b60405161010996959493929190611ab3565b60405180910390f35b61012c6004803603610127919081019061148c565b610629565b60405161013d95949392919061191c565b60405180910390f35b610160600480360361015b919081019061131c565b61097d565b60405161016d91906118a8565b60405180910390f35b610190600480360361018b91908101906113c9565b6109b3565b005b6101ac60048036036101a7919081019061131c565b610adb565b6040516101b991906118c3565b60405180910390f35b6101ca610ba7565b6040516101d791906119eb565b60405180910390f35b6101e8610bb1565b6040516101f59190611886565b60405180910390f35b6102186004803603610213919081019061135d565b610fd1565b005b60028160405161022a919061186f565b908152602001604051809103902060009054906101000a900460ff1615610286576040517f08c379a000000000000000000000000000000000000000000000000000000000815260040161027d906119cb565b60405180910390fd5b60008211801561029857506003548211155b6102d7576040517f08c379a00000000000000000000000000000000000000000000000000000000081526004016102ce9061198b565b60405180910390fd5b60008083815260200190815260200160002060050160008154809291906001019190505550600160028260405161030e919061186f565b908152602001604051809103902060006101000a81548160ff0219169083151502179055507fa63ca37190e619f865dc8e24d616d8d3c428554a172f39acf18ababcabcce0d582826000808681526020019081526020016000206005015460405161037b93929190611a75565b60405180910390a15050565b60035481565b6000602052806000526040600020600091509050806000015490806001018054600181600116156101000203166002900480601f01602080910402602001604051908101604052809291908181526020018280546001816001161561010002031660029004801561043f5780601f106104145761010080835404028352916020019161043f565b820191906000526020600020905b81548152906001019060200180831161042257829003601f168201915b505050505090806002018054600181600116156101000203166002900480601f0160208091040260200160405190810160405280929190818152602001828054600181600116156101000203166002900480156104dd5780601f106104b2576101008083540402835291602001916104dd565b820191906000526020600020905b8154815290600101906020018083116104c057829003601f168201915b505050505090806003018054600181600116156101000203166002900480601f01602080910402602001604051908101604052809291908181526020018280546001816001161561010002031660029004801561057b5780601f106105505761010080835404028352916020019161057b565b820191906000526020600020905b81548152906001019060200180831161055e57829003601f168201915b505050505090806004018054600181600116156101000203166002900480601f0160208091040260200160405190810160405280929190818152602001828054600181600116156101000203166002900480156106195780601f106105ee57610100808354040283529160200191610619565b820191906000526020600020905b8154815290600101906020018083116105fc57829003601f168201915b5050505050908060050154905086565b6060806060806000808611801561064257506003548611155b610681576040517f08c379a0000000000000000000000000000000000000000000000000000000008152600401610678906119ab565b60405180910390fd5b61068961107e565b6000808881526020019081526020016000206040518060c001604052908160008201548152602001600182018054600181600116156101000203166002900480601f0160208091040260200160405190810160405280929190818152602001828054600181600116156101000203166002900480156107495780601f1061071e57610100808354040283529160200191610749565b820191906000526020600020905b81548152906001019060200180831161072c57829003601f168201915b50505050508152602001600282018054600181600116156101000203166002900480601f0160208091040260200160405190810160405280929190818152602001828054600181600116156101000203166002900480156107eb5780601f106107c0576101008083540402835291602001916107eb565b820191906000526020600020905b8154815290600101906020018083116107ce57829003601f168201915b50505050508152602001600382018054600181600116156101000203166002900480601f01602080910402602001604051908101604052809291908181526020018280546001816001161561010002031660029004801561088d5780601f106108625761010080835404028352916020019161088d565b820191906000526020600020905b81548152906001019060200180831161087057829003601f168201915b50505050508152602001600482018054600181600116156101000203166002900480601f01602080910402602001604051908101604052809291908181526020018280546001816001161561010002031660029004801561092f5780601f106109045761010080835404028352916020019161092f565b820191906000526020600020905b81548152906001019060200180831161091257829003601f168201915b50505050508152602001600582015481525050905080602001518160400151826060015183608001518460a00151849450839350829250819150955095509550955095505091939590929450565b6002818051602081018201805184825260208301602085012081835280955050505050506000915054906101000a900460ff1681565b6003600081548092919060010191905055506040518060c00160405280600354815260200185815260200184815260200183815260200182815260200160008152506000806003548152602001908152602001600020600082015181600001556020820151816001019080519060200190610a2f9291906110b4565b506040820151816002019080519060200190610a4c9291906110b4565b506060820151816003019080519060200190610a699291906110b4565b506080820151816004019080519060200190610a869291906110b4565b5060a082015181600501559050507f1908f3f8bf9e04cbee388cdea6025f92e954127dec768c7e092afb158071f0d060035485858585604051610acd959493929190611a06565b60405180910390a150505050565b600181805160208101820180518482526020830160208501208183528095505050505050600091509050806000018054600181600116156101000203166002900480601f016020809104026020016040519081016040528092919081815260200182805460018160011615610100020316600290048015610b9d5780601f10610b7257610100808354040283529160200191610b9d565b820191906000526020600020905b815481529060010190602001808311610b8057829003601f168201915b5050505050905081565b6000600354905090565b606080600354604051908082528060200260200182016040528015610bf057816020015b610bdd611134565b815260200190600190039081610bd55790505b5090506000600190505b6003548111610ee3576000808281526020019081526020016000206040518060c001604052908160008201548152602001600182018054600181600116156101000203166002900480601f016020809104026020016040519081016040528092919081815260200182805460018160011615610100020316600290048015610cc35780601f10610c9857610100808354040283529160200191610cc3565b820191906000526020600020905b815481529060010190602001808311610ca657829003601f168201915b50505050508152602001600282018054600181600116156101000203166002900480601f016020809104026020016040519081016040528092919081815260200182805460018160011615610100020316600290048015610d655780601f10610d3a57610100808354040283529160200191610d65565b820191906000526020600020905b815481529060010190602001808311610d4857829003601f168201915b50505050508152602001600382018054600181600116156101000203166002900480601f016020809104026020016040519081016040528092919081815260200182805460018160011615610100020316600290048015610e075780601f10610ddc57610100808354040283529160200191610e07565b820191906000526020600020905b815481529060010190602001808311610dea57829003601f168201915b50505050508152602001600482018054600181600116156101000203166002900480601f016020809104026020016040519081016040528092919081815260200182805460018160011615610100020316600290048015610ea95780601f10610e7e57610100808354040283529160200191610ea9565b820191906000526020600020905b815481529060010190602001808311610e8c57829003601f168201915b50505050508152602001600582015481525050826001830381518110610ecb57fe5b60200260200101819052508080600101915050610bfa565b5060008090505b600160035403811015610fc95760008090505b6001826003540303811015610fbb57826001820181518110610f1b57fe5b602002602001015160a00151838281518110610f3357fe5b602002602001015160a001511015610fae57610f4d61107e565b838281518110610f5957fe5b60200260200101519050836001830181518110610f7257fe5b6020026020010151848381518110610f8657fe5b602002602001018190525080846001840181518110610fa157fe5b6020026020010181905250505b8080600101915050610efd565b508080600101915050610eea565b508091505090565b604051806040016040528083815260200182815250600183604051610ff6919061186f565b908152602001604051809103902060008201518160000190805190602001906110209291906110b4565b50602082015181600101908051906020019061103d92919061116a565b509050507f07e120c3cc78039420391679290a0506f5097beab87ca3e48c1e2aa2eadbe56682826040516110729291906118e5565b60405180910390a15050565b6040518060c001604052806000815260200160608152602001606081526020016060815260200160608152602001600081525090565b828054600181600116156101000203166002900490600052602060002090601f016020900481019282601f106110f557805160ff1916838001178555611123565b82800160010185558215611123579182015b82811115611122578251825591602001919060010190611107565b5b50905061113091906111b7565b5090565b6040518060c001604052806000815260200160608152602001606081526020016060815260200160608152602001600081525090565b8280548282559060005260206000209081019282156111a6579160200282015b828111156111a557825182559160200191906001019061118a565b5b5090506111b391906111b7565b5090565b6111d991905b808211156111d55760008160009055506001016111bd565b5090565b90565b600082601f8301126111ed57600080fd5b81356112006111fb82611b5d565b611b30565b9150818183526020840193506020810190508385602084028201111561122557600080fd5b60005b83811015611255578161123b8882611307565b845260208401935060208301925050600181019050611228565b5050505092915050565b600082601f83011261127057600080fd5b813561128361127e82611b85565b611b30565b9150808252602083016020830185838301111561129f57600080fd5b6112aa838284611ca8565b50505092915050565b600082601f8301126112c457600080fd5b81356112d76112d282611bb1565b611b30565b915080825260208301602083018583830111156112f357600080fd5b6112fe838284611ca8565b50505092915050565b60008135905061131681611cfb565b92915050565b60006020828403121561132e57600080fd5b600082013567ffffffffffffffff81111561134857600080fd5b6113548482850161125f565b91505092915050565b6000806040838503121561137057600080fd5b600083013567ffffffffffffffff81111561138a57600080fd5b611396858286016112b3565b925050602083013567ffffffffffffffff8111156113b357600080fd5b6113bf858286016111dc565b9150509250929050565b600080600080608085870312156113df57600080fd5b600085013567ffffffffffffffff8111156113f957600080fd5b611405878288016112b3565b945050602085013567ffffffffffffffff81111561142257600080fd5b61142e878288016112b3565b935050604085013567ffffffffffffffff81111561144b57600080fd5b611457878288016112b3565b925050606085013567ffffffffffffffff81111561147457600080fd5b611480878288016112b3565b91505092959194509250565b60006020828403121561149e57600080fd5b60006114ac84828501611307565b91505092915050565b600080604083850312156114c857600080fd5b60006114d685828601611307565b925050602083013567ffffffffffffffff8111156114f357600080fd5b6114ff858286016112b3565b9150509250929050565b600061151583836117b3565b905092915050565b60006115298383611851565b60208301905092915050565b600061154082611bfd565b61154a8185611c43565b93508360208202850161155c85611bdd565b8060005b8581101561159857848403895281516115798582611509565b945061158483611c29565b925060208a01995050600181019050611560565b50829750879550505050505092915050565b60006115b582611c08565b6115bf8185611c54565b93506115ca83611bed565b8060005b838110156115fb5781516115e2888261151d565b97506115ed83611c36565b9250506001810190506115ce565b5085935050505092915050565b61161181611c92565b82525050565b600061162282611c1e565b61162c8185611c76565b935061163c818560208601611cb7565b61164581611cea565b840191505092915050565b600061165b82611c1e565b6116658185611c87565b9350611675818560208601611cb7565b80840191505092915050565b600061168c82611c13565b6116968185611c65565b93506116a6818560208601611cb7565b6116af81611cea565b840191505092915050565b60006116c582611c13565b6116cf8185611c76565b93506116df818560208601611cb7565b6116e881611cea565b840191505092915050565b6000611700601183611c76565b91507f496e76616c69642063616e6469646174650000000000000000000000000000006000830152602082019050919050565b6000611740601883611c76565b91507f43616e64696461746520646f6573206e6f7420657869737400000000000000006000830152602082019050919050565b6000611780601683611c76565b91507f596f75206861766520616c726561647920766f746564000000000000000000006000830152602082019050919050565b600060c0830160008301516117cb6000860182611851565b50602083015184820360208601526117e38282611681565b915050604083015184820360408601526117fd8282611681565b915050606083015184820360608601526118178282611681565b915050608083015184820360808601526118318282611681565b91505060a083015161184660a0860182611851565b508091505092915050565b61185a81611c9e565b82525050565b61186981611c9e565b82525050565b600061187b8284611650565b915081905092915050565b600060208201905081810360008301526118a08184611535565b905092915050565b60006020820190506118bd6000830184611608565b92915050565b600060208201905081810360008301526118dd81846116ba565b905092915050565b600060408201905081810360008301526118ff8185611617565b9050818103602083015261191381846115aa565b90509392505050565b600060a08201905081810360008301526119368188611617565b9050818103602083015261194a8187611617565b9050818103604083015261195e8186611617565b905081810360608301526119728185611617565b90506119816080830184611860565b9695505050505050565b600060208201905081810360008301526119a4816116f3565b9050919050565b600060208201905081810360008301526119c481611733565b9050919050565b600060208201905081810360008301526119e481611773565b9050919050565b6000602082019050611a006000830184611860565b92915050565b600060a082019050611a1b6000830188611860565b8181036020830152611a2d8187611617565b90508181036040830152611a418186611617565b90508181036060830152611a558185611617565b90508181036080830152611a698184611617565b90509695505050505050565b6000606082019050611a8a6000830186611860565b8181036020830152611a9c8185611617565b9050611aab6040830184611860565b949350505050565b600060c082019050611ac86000830189611860565b8181036020830152611ada81886116ba565b90508181036040830152611aee81876116ba565b90508181036060830152611b0281866116ba565b90508181036080830152611b1681856116ba565b9050611b2560a0830184611860565b979650505050505050565b6000604051905081810181811067ffffffffffffffff82111715611b5357600080fd5b8060405250919050565b600067ffffffffffffffff821115611b7457600080fd5b602082029050602081019050919050565b600067ffffffffffffffff821115611b9c57600080fd5b601f19601f8301169050602081019050919050565b600067ffffffffffffffff821115611bc857600080fd5b601f19601f8301169050602081019050919050565b6000819050602082019050919050565b6000819050602082019050919050565b600081519050919050565b600081519050919050565b600081519050919050565b600081519050919050565b6000602082019050919050565b6000602082019050919050565b600082825260208201905092915050565b600082825260208201905092915050565b600082825260208201905092915050565b600082825260208201905092915050565b600081905092915050565b60008115159050919050565b6000819050919050565b82818337600083830152505050565b60005b83811015611cd5578082015181840152602081019050611cba565b83811115611ce4576000848401525b50505050565b6000601f19601f8301169050919050565b611d0481611c9e565b8114611d0f57600080fd5b5056fea365627a7a72315820808cd3de7bf0e0272090d6e4047011f32949f9c40a331ae8369a0f47a78721936c6578706572696d656e74616cf564736f6c63430005100040",
  "source": "// SPDX-License-Identifier: MIT\r\npragma solidity ^0.5.16;\r\npragma experimental ABIEncoderV2; \r\n\r\ncontract Voting {\r\n    struct Candidate {\r\n        uint id;\r\n        string name;\r\n        string party;\r\n        string candidatePhoto;\r\n        string partySymbol;\r\n        uint voteCount;\r\n    }\r\n\r\n    struct Election {\r\n        string electionName;\r\n        uint[] candidateIds;\r\n    }\r\n\r\n    mapping(uint => Candidate) public candidates;\r\n    mapping(string => Election) public elections;\r\n    mapping(string => bool) public hasVoted; // Track votes using voter ID\r\n    uint public candidatesCount = 0;\r\n\r\n    event CandidateAdded(uint id, string name, string party, string candidatePhoto, string partySymbol);\r\n    event ElectionCreated(string electionName, uint[] candidateIds);\r\n    event VoteCasted(uint candidateId, string voterId, uint newVoteCount);\r\n\r\n    // Add a new candidate to the blockchain\r\n    function addCandidate(string memory _name, string memory _party, string memory _candidatePhoto, string memory _partySymbol) public {\r\n        candidatesCount++;\r\n        candidates[candidatesCount] = Candidate({\r\n            id: candidatesCount,\r\n            name: _name,\r\n            party: _party,\r\n            candidatePhoto: _candidatePhoto,\r\n            partySymbol: _partySymbol,\r\n            voteCount: 0  //  Explicitly initializing vote count\r\n        });\r\n\r\n        emit CandidateAdded(candidatesCount, _name, _party, _candidatePhoto, _partySymbol);\r\n    }\r\n\r\n    // Create an election with selected candidates\r\n    function createElection(string memory _electionName, uint[] memory _candidateIds) public {\r\n        elections[_electionName] = Election({\r\n            electionName: _electionName,\r\n            candidateIds: _candidateIds\r\n        });\r\n\r\n        emit ElectionCreated(_electionName, _candidateIds);\r\n    }\r\n\r\n    // Cast a vote\r\n    function vote(uint _candidateId, string memory _voterId) public {\r\n        require(!hasVoted[_voterId], \"You have already voted\");  // Ensure the voter hasn't voted before\r\n        require(_candidateId > 0 && _candidateId <= candidatesCount, \"Invalid candidate\");\r\n\r\n        candidates[_candidateId].voteCount++; //  Increment vote count\r\n        hasVoted[_voterId] = true; //  Mark voter ID as voted\r\n\r\n        emit VoteCasted(_candidateId, _voterId, candidates[_candidateId].voteCount);\r\n    }\r\n\r\n    function getCandidatesCount() public view returns (uint) {\r\n        return candidatesCount;\r\n    }\r\n\r\n    function getCandidate(uint _id) public view returns (string memory, string memory, string memory, string memory, uint) {\r\n        require(_id > 0 && _id <= candidatesCount, \"Candidate does not exist\");\r\n        Candidate memory c = candidates[_id];\r\n        return (c.name, c.party, c.candidatePhoto, c.partySymbol, c.voteCount);\r\n    }\r\n\r\n    // Get election results sorted by votes\r\n    function getElectionResults() public view returns (Candidate[] memory) {\r\n        Candidate[] memory sortedCandidates = new Candidate[](candidatesCount);\r\n        \r\n        //  Iterate over candidate mapping and store them in an array\r\n        for (uint i = 1; i <= candidatesCount; i++) {\r\n            sortedCandidates[i - 1] = candidates[i];\r\n        }\r\n\r\n        //  Bubble Sort for sorting candidates by vote count\r\n        for (uint i = 0; i < candidatesCount - 1; i++) {\r\n            for (uint j = 0; j < candidatesCount - i - 1; j++) {\r\n                if (sortedCandidates[j].voteCount < sortedCandidates[j + 1].voteCount) {\r\n                    Candidate memory temp = sortedCandidates[j];\r\n                    sortedCandidates[j] = sortedCandidates[j + 1];\r\n                    sortedCandidates[j + 1] = temp;\r\n                }\r\n            }\r\n        }\r\n\r\n        return sortedCandidates;\r\n    }\r\n}",
  "sourcePath": "C:\\Users\\HP\\OneDrive\\Desktop\\Secure-Online-E-Voting-System-master\\blockchain-voting\\contracts\\Voting.sol",
  "compiler": {
    "name": "solc",
    "version": "0.5.16+commit.9c3226ce.Emscripten.clang"
  },
  "schemaVersion": "3.4.16",
  "updatedAt": "2025-04-10T06:52:16.536Z",
  "networkType": "ethereum",
  "devdoc": {
    "methods": {}
  },
  "userdoc": {
    "methods": {}
  }
}